:10C000005542200135D0085A8245000231400004D3
:10C010003F4000000F9308249242000220012F832A
:10C020009F4F28C10002F8233F4000000F930724D0
:10C030009242000220011F83CF430002F9230441F2
:10C0400024532183B240805A2001F2400A0022008A
:10C05000C2432100E2422E00C2434200F2401F00D0
:10C060002A00F24003002900B24010028001B240D1
:10C07000E8039201B24090019401B240E0008401D3
:10C080005F4221007FD2C24F21003F4006001F8344
:10C090000F93FD235F4221007FF0F7FFC24F210085
:10C0A00003435F4220004F4F2FF20F93FA27844340
:10C0B000FCFF0C3C3F4009001F830F93FD2303430B
:10C0C0009453FCFFB4909001FCFF07345F422000C2
:10C0D0004F4F2FF21F93EE37013C0343B4901E00E5
:10C0E000FCFF0934B240E80394015F4221006FD3A2
:10C0F000C24F21000B3CC2432900B2409001940181
:10C100005F4221007FF0FDFFC24F21003F4034829B
:10C110001F830F93FD2303430343B23F32D0F0004C
:08C12000FD3F304026C1001371
:10FFE00022C122C122C122C122C122C122C122C1F9
:10FFF00022C122C122C122C122C122C122C100C00C
:040000030000C00039
:00000001FF
